:020000040800F2
:1000000000040020010100088302000865020008C6
:100010007F0200084901000859050008000000009F
:10002000000000000000000000000000590300086C
:100030004D010008000000001503000845040008F9
:100040001B0100081B0100081B0100081B01000820
:100050001B0100081B0100081B0100081B01000810
:100060001B0100081B0100081B0100081B01000800
:100070001B0100081B0100081B0100081B010008F0
:100080001B0100081B0100081B0100081B010008E0
:100090001B0100081B0100081B0100081B010008D0
:1000A0001B0100081B0100081B0100081B010008C0
:1000B0001B0100081B0100081B0100081B010008B0
:1000C0001B0100081B0100081B0100081B010008A0
:1000D0001B0100081B0100081B0100081B01000890
:1000E0001B0100081B0100081B010008DFF80CD0F1
:1000F00000F018F8004800479505000800040020AB
:100100000648804706480047FEE7FEE7FEE7FEE7B1
:10011000FEE7FEE7FEE7FEE7FEE7FEE7490400082C
:10012000ED000008064C074D06E0E06840F00103D2
:1001300094E8070098471034AC42F6D3FFF7DAFF93
:10014000C4050008D405000800BFFEE770472DE98C
:10015000F04102460025002600200023002400274D
:1001600091F803C00CF00F0591F803C00CF0100CCF
:10017000BCF1000F03D091F802C04CEA050591F8DC
:1001800000C0BCF1000F31D0146800202BE04FF00C
:10019000010C0CFA00F3B1F800C00CEA03069E4211
:1001A00020D183004FF00F0C0CFA03F7BC4305FA83
:1001B00003FC4CEA040491F803C0BCF1280F06D1FB
:1001C0004FF0010C0CFA00FCC2F814C00AE091F8E0
:1001D00003C0BCF1480F05D14FF0010C0CFA00FC34
:1001E000C2F810C0401C0828D1D31460B1F800C078
:1001F000BCF1FF0F34DD546800202EE000F1080C44
:100200004FF0010808FA0CF3B1F800C00CEA03063D
:100210009E4221D183004FF00F0C0CFA03F7BC4330
:1002200005FA03FC4CEA040491F803C0BCF1280F62
:1002300005D100F1080C08FA0CF8C2F8148091F806
:1002400003C0BCF1480F07D100F1080C4FF00108C2
:1002500008FA0CF8C2F81080401C0828CED354606D
:10026000BDE8F08100BFFEE770B50446049D601A4A
:10027000EE1A7043561A90FBF6F0184470BD00BF9A
:10028000FEE7704730B589B004460121084600F00A
:1002900043F80121042000F04FF818208DF82300C6
:1002A0000220ADF8200003208DF8220008A918488C
:1002B000FFF74DFF4720ADF8140044F61F60ADF87E
:1002C00018000020ADF81600ADF81A0001218807CB
:1002D00000F0EAF840F6C4104FF4FA73B42200219B
:1002E00000902046FFF7C0FF0546A8B2ADF80A000F
:1002F0006020ADF804000120ADF806000020ADF844
:100300000C0001A94FF0804000F0DAF809B030BDD0
:10031000000801407047000029B1064AD269024333
:10032000044BDA6104E0034AD2698243014BDA618B
:10033000704700000010024029B1064A926902434A
:10034000044B9A6104E0034A92698243014B9A612B
:100350007047000000100240704710B500F002F82E
:1003600010BD00000CB500200190009033480068DB
:1003700040F480303149086000BF3048006800F424
:10038000003000900198401C0190009818B9019825
:10039000B0F5A06FF1D12948006800F4003010B129
:1003A0000120009001E0002000900098012843D136
:1003B0002348006840F010002149086008460068A2
:1003C00020F0030008600846006840F00200086062
:1003D0001A4840681949486008464068486008461D
:1003E000406840F4806048600846406820F47C1013
:1003F00048600846406840F4E810486008460068D5
:1004000040F08070086000BF0C48006800F0007089
:100410000028F9D00948406820F0030007494860E7
:100420000846406840F00200486000BF034840684A
:1004300000F00C000828F9D10CBD000000100240AB
:10044000002002407047000010B51348006840F0DB
:1004500001001149086008464068104908400E49EB
:100460004860084600680E4908400B490860084685
:10047000006820F4802008600846406820F4FE00F0
:1004800048604FF41F008860FFF767FF4FF000607F
:100490000449086010BD0000001002400000FFF891
:1004A000FFFFF6FE08ED00E021B1028842F00102F4
:1004B000028004E002884FF6FE731A400280704703
:1004C00070B5002400220023058C4FF6FE763540DF
:1004D0000584028C8388048B4FF68F752C40B51EE3
:1004E0002C400D882C43751E2A400D892A434D88C7
:1004F0002A43144DA8420BD0134DA84208D0134DE7
:10050000A84205D0124DA84202D0124DA84213D1E4
:100510004FF6F7752A404D892A434FF6FB752A405E
:100520008D882A434FF6FF652B404FF6FF552B4031
:100530008D892B43CD892B4383800483CD88858689
:10054000028470BD002C0140003401400040014095
:10055000004401400048014000BFFEE702E008C837
:10056000121F08C1002AFAD170477047002001E02D
:1005700001C1121F002AFBD17047002107E00022B1
:1005800000E0521C42F6FF239A42FADB491C8142EA
:10059000F5DB704715E0002406E02046FFF772FE09
:1005A0006420FFF7EAFF1434B42CF6DBB42406E031
:1005B0002046FFF767FE0520FFF7DFFF641E002CD3
:1005C000F6DAE8E7D4050008000000200004000087
:0405D0006C050008AE
:04000005080000ED02
:00000001FF
